:100000000C9462000C948A000C948A000C948A0070
:100010000C948A000C948A000C948A000C948A0038
:100020000C948A000C948A000C948A000C948A0028
:100030000C948A000C948A000C948A000C948A0018
:100040000C94A5030C948A000C9415040C94EF03F3
:100050000C948A000C948A000C948A000C948A00F8
:100060000C948A000C948A000000000024002700F1
:100070002A0000000000250028002B0000000000DE
:1000800023002600290004040404040404040202DA
:100090000202020203030303030301020408102007
:1000A0004080010204081020010204081020000012
:1000B0000008000201000003040700000000000027
:1000C0000000470411241FBECFEFD8E0DEBFCDBF34
:1000D00022E0AEE3B1E001C01D92A530B207E1F726
:1000E00011E0A0E0B1E0E2E0F4E102C005900D9281
:1000F000AE33B107D9F710E0C2E6D0E004C02197D3
:10010000FE010E94CC06C136D107C9F70E948704C0
:100110000C94FF090C9400003FB7F89480914E01B5
:1001200090914F01A0915001B091510126B5A89B2B
:1001300005C02F3F19F00196A11DB11D3FBFBA2F79
:10014000A92F982F8827820F911DA11DB11DBC01D9
:10015000CD0142E0660F771F881F991F4A95D1F79E
:1001600008952FB7F89460914A0170914B018091E6
:100170004C0190914D012FBF08950E94B10028EECF
:1001800033E040E050E00E949709CA01B9010895A8
:10019000CF93DF93EC01E885F9850995688379832E
:1001A0008A839B831C821D821E821F8281E08A8734
:1001B000DF91CF9108958F929F92AF92BF92CF928D
:1001C000DF92EF92FF920F931F93CF93DF93EC0197
:1001D0004A015B01CC80DD80EE80FF808A85882328
:1001E00071F0E885F9850995088119812A813B819B
:1001F000DC01CB01801B910BA20BB30B03C080E091
:1002000090E0DC018C0D9D1DAE1DBF1D21E0881509
:100210009905AA05BB0508F420E0822FDF91CF9154
:100220001F910F91FF90EF90DF90CF90BF90AF9014
:100230009F908F900895833081F028F4813099F059
:100240008230A1F008958730A9F08830B9F0843069
:10025000D1F4809180008F7D03C0809180008F77E2
:1002600080938000089584B58F7702C084B58F7D18
:1002700084BD08958091B0008F7703C08091B00055
:100280008F7D8093B0000895CF93DF93282F30E0C7
:10029000F901E255FF4F8491F901E656FF4FD491E1
:1002A000F901EA57FF4FC491CC2391F081110E94CC
:1002B0001B01EC2FF0E0EE0FFF1FE458FF4FA5915C
:1002C000B491EC91ED2381E090E021F480E002C054
:1002D00080E090E0DF91CF9108951F93CF93DF935B
:1002E000282F30E0F901E255FF4F8491F901E656DD
:1002F000FF4FD491F901EA57FF4FC491CC23C9F0C5
:10030000162F81110E941B01EC2FF0E0EE0FFF1F52
:10031000EE58FF4FA591B4918FB7F894111105C015
:100320009C91ED2FE095E92302C0EC91ED2BEC932D
:100330008FBFDF91CF911F910895CF93DF9390E00E
:10034000FC01E656FF4F2491FC01EA57FF4F8491D0
:10035000882361F190E0880F991FFC01E859FF4F55
:10036000C591D491FC01EE58FF4FA591B491611154
:1003700009C09FB7F8948881209582238883EC91E7
:100380002E230BC0623061F49FB7F8943881822F1E
:10039000809583238883EC912E2B2C939FBF06C0DE
:1003A0008FB7F894E8812E2B28838FBFDF91CF91F0
:1003B00008958F929F92AF92BF92CF92DF92EF9269
:1003C000FF926B017C010E948C004B015C01C11407
:1003D000D104E104F104F1F00E948C00DC01CB01B6
:1003E00088199909AA09BB09883E9340A105B1055E
:1003F00070F321E0C21AD108E108F10888EE880EF6
:1004000083E0981EA11CB11CC114D104E104F104C5
:1004100019F7DDCFFF90EF90DF90CF90BF90AF90B6
:100420009F908F900895CF92DF92EF92FF920F935B
:100430001F93CF93DF936C017A018B01C0E0D0E072
:10044000CE15DF0589F0D8016D918D01D601ED91B2
:10045000FC910190F081E02DC6010995892B11F4E2
:100460007E0102C02196ECCFC701DF91CF911F9191
:100470000F91FF90EF90DF90CF900895FC01918D48
:10048000828D981761F0828DDF01A80FB11D5D96F6
:100490008C91928D9F5F9F73928F90E008958FEF64
:1004A0009FEF0895FC01918D828D981731F0828D18
:1004B000E80FF11D858D90E008958FEF9FEF08956F
:1004C000FC01918D228D892F90E0805C9F4F821BD3
:1004D00091098F739927089582E591E00E94600247
:1004E00021E0892B09F420E0822F0895FC01848DFE
:1004F000DF01A80FB11DA35ABF4F2C91848D90E04E
:1005000001968F739927848FA689B7892C93A08928
:10051000B1898C9180648C93938D848D981306C0DF
:100520000288F389E02D80818F7D80830895EF928A
:10053000FF920F931F93CF93DF93EC0181E0888F9D
:100540009B8D8C8D981305C0E889F989808185FD84
:1005500024C0F62E0B8D10E00F5F1F4F0F73112775
:10056000E02E8C8DE8120CC00FB607FCFACFE8899C
:10057000F989808185FFF5CFCE010E947602F1CF07
:100580008B8DFE01E80FF11DE35AFF4FF0820B8FB8
:10059000EA89FB898081806207C0EE89FF896083D8
:1005A000E889F98980818064808381E090E0DF912F
:1005B000CF911F910F91FF90EF900895CF93DF930C
:1005C000EC01888D8823C9F0EA89FB89808185FD4B
:1005D00005C0A889B9898C9186FD0FC00FB607FCAC
:1005E000F5CF808185FFF2CFA889B9898C9185FFED
:1005F000EDCFCE010E947602E7CFDF91CF91089533
:1006000080E090E0892B29F00E946C0281110C940B
:10061000000008958230910571F02CF4009749F0A4
:10062000019749F00BC08330910529F0049719F028
:1006300005C08AE001C08BE00C94440180E090E0AA
:1006400008958230910579F02CF4009749F00197D4
:1006500051F008958330910531F0049721F0089509
:1006600060E08AE002C060E08BE00C946D018230B3
:10067000910579F02CF4009749F0019751F0089515
:100680008330910531F0049721F0089561E08AE00C
:1006900002C061E08BE00C946D01009769F0FC01F1
:1006A00001900020E9F73197AF01481B590BBC01BD
:1006B00082E591E00C94130280E090E00895CF92DF
:1006C000DF92EF92FF920F931F93CF93DF93CDB7FB
:1006D000DEB7A1970FB6F894DEBF0FBECDBF9C0169
:1006E00040E050E019A28E010F5D1F4F8AE0C82E36
:1006F000D12CE12CF12CCA01B901A70196010E946D
:100700009709605DF80162938F012115310541055C
:10071000510589F7CF010E944D038C018DE191E0D5
:100720000E944D03800F911FA1960FB6F894DEBF73
:100730000FBECDBFDF91CF911F910F91FF90EF9032
:10074000DF90CF9008950E94D2061F920F920FB6AD
:100750000F9211242F933F938F939F93AF93BF9347
:1007600080914A0190914B01A0914C01B0914D01B3
:100770003091490123E0230F2D3720F40196A11D6C
:10078000B11D05C026E8230F0296A11DB11D2093BF
:10079000490180934A0190934B01A0934C01B0937F
:1007A0004D0180914E0190914F01A0915001B09167
:1007B00051010196A11DB11D80934E0190934F01EF
:1007C000A0935001B0935101BF91AF919F918F9130
:1007D0003F912F910F900FBE0F901F9018951F9271
:1007E0000F920FB60F9211242F933F934F935F9365
:1007F0006F937F938F939F93AF93BF93EF93FF93E9
:1008000082E591E00E947602FF91EF91BF91AF9156
:100810009F918F917F916F915F914F913F912F9118
:100820000F900FBE0F901F9018951F920F920FB64A
:100830000F9211242F938F939F93EF93FF93E09147
:100840006201F09163018081E0916801F09169019A
:1008500082FD12C0908180916B018F5F8F73209118
:100860006C01821751F0E0916B01F0E0EE5AFE4FFF
:10087000958F80936B0101C08081FF91EF919F91D3
:100880008F912F910F900FBE0F901F901895E2E55A
:10089000F1E01382128288EE93E0A0E0B0E084835E
:1008A0009583A683B78381E191E09183808385EC72
:1008B00090E09587848784EC90E09787868780EC2A
:1008C00090E0918B808B81EC90E0938B828B82EC1B
:1008D00090E0958B848B86EC90E0978B868B118EC5
:1008E000128E138E148E8DEB90E090930302809302
:1008F00002028AEF91E00E94C80081EB90E09093A1
:10090000F8018093F7018FEE91E00C94C800CF932B
:10091000DF93CDB7DEB7C656D1090FB6F894DEBF68
:100920000FBECDBF789484B5826084BD84B58160EC
:1009300084BD85B5826085BD85B5816085BD8091AA
:100940006E00816080936E00109281008091810022
:10095000826080938100809181008160809381001A
:10096000809180008160809380008091B1008460DC
:100970008093B1008091B00081608093B00080913D
:100980007A00846080937A0080917A0082608093FC
:100990007A0080917A00816080937A0080917A0059
:1009A000806880937A001092C100E0916201F0911A
:1009B000630182E08083E0915E01F0915F0110822B
:1009C000E0916001F09161018FEC808310926A01E7
:1009D000E0916601F091670186E08083E091640117
:1009E000F0916501808180618083E0916401F091E4
:1009F0006501808188608083E0916401F0916501E8
:100A0000808180688083E0916401F091650180813C
:100A10008F7D808362E08AE00E949D0162E08AE02F
:100A20000E949D0162E08BE00E949D0162E08BE0EC
:100A30000E949D0162E08BE00E949D0162E08BE0DC
:100A40000E949D0161E08BE00E949D0161E08AE0CF
:100A50000E949D0161E08BE00E949D0161E08BE0BE
:100A60000E949D0161E08BE00E949D0161E08BE0AE
:100A70000E949D0161E08BE00E946D0160E08AE0D0
:100A80000E946D0160E08BE00E946D0160E08BE0F0
:100A90000E946D0160E08BE00E946D0160E08BE0E0
:100AA0000E946D0183E0482E512C92E0C92ED12C7A
:100AB00024E0622E712CCE010596A7969FAF8EAFD3
:100AC000A79730E0232E31E0332EFE0131967F01CF
:100AD0004AE0A42EB12C88248394912C61E08BE011
:100AE0000E946D0181E080934801809144019091C2
:100AF00045018230910589F174F4009799F00197CE
:100B000009F047C18AEF91E00E94C8008FEE91E0A2
:100B10000E94C8007BC08330910571F1049709F4ED
:100B2000AEC037C1109243011092420110924101B0
:100B30001092400110923F0110923E0100E010E03F
:100B4000C8010E9421030F5F1F4F05301105C1F737
:100B500090924501809244011CC180914201909184
:100B600043010E9437038FEE91E00E94C80050922B
:100B70004501409244010DC148E750E060E070E05B
:100B80008AEF91E00E94DB00882329F070924501F2
:100B900060924401FEC048EE53E060E070E08FEEEA
:100BA00091E00E94DB0000914201109143018823F3
:100BB00091F1C8010E94210380913E0190913F0173
:100BC000019690933F0180933E018FEE91E00E9449
:100BD000C80000914201109143010F5F1F4F109315
:100BE000430100934201C8010E94370380913E01F6
:100BF00090913F01019690933F0180933E01083010
:100C0000110524F01092430110924201D092450147
:100C1000C0924401BEC0C8010E940A03892B09F496
:100C2000B8C068EC70E080E090E00E94D901C80193
:100C30000E940A03892B09F4ACC0C8010E94210359
:100C40008FEE91E00E94C800809142019091430193
:100C50000196883091052CF49093430180934201D2
:100C600004C0109243011092420180914001909182
:100C70004101019690934101809340018AC01092F6
:100C80004501109244012091400130914101409171
:100C90003E0150913F014217530798F0A7E0B0E0A2
:100CA0000E94B9099A0140E050E00E947809DA01F7
:100CB000C9010396A11DB11D909347018093460180
:100CC00004C0B0924701A092460180E291E00E94E8
:100CD0004D0380914001909141010E945F038CE29D
:100CE00091E00E944D0380913E0190913F010E944E
:100CF0005F0300E010E0C8010E9421030F5F1F4F57
:100D00000A301105C1F719821A821B821C82A7962C
:100D1000EEADFFADA79780E611928A95E9F7809135
:100D200047018F93809146018F933F922F92FF92BC
:100D3000EF920E94D706C7010E944D038EE191E019
:100D40000E944D0364E670E080E090E00E94D901CB
:100D5000109248010F900F900F900F900F900F90EE
:100D600005E010E061E08BE00E946D0164E670E058
:100D700080E090E00E94D90160E08BE00E946D016C
:100D800064E670E080E090E00E94D9010150110912
:100D900049F70E940003A2CEEE0FFF1F0590F491C9
:100DA000E02D099481E090E0F8940C94FF09AEE006
:100DB000B0E0EDEDF6E00C94D6090D891E8986E0D1
:100DC0008C831A8309838FEF9FE79E838D83AE0107
:100DD000475E5F4F6F89788DCE0101960E94FA06BB
:100DE0002F813885F801E20FF31F10822E96E4E080
:100DF0000C94F209ACE0B0E0E0E0F7E00C94C80934
:100E00007C016B018A01FC0117821682838181FFBC
:100E1000BDC1CE0101964C01F7019381F60193FD0E
:100E2000859193FF81916F01882309F4ABC18532CD
:100E300039F493FD859193FF81916F01853229F4F7
:100E4000B70190E00E94E208E7CF512C312C20E05E
:100E50002032A0F48B3269F030F4803259F08332C2
:100E600069F420612CC08D3239F0803339F421606F
:100E700026C02260246023C0286021C027FD27C02F
:100E800030ED380F3A3078F426FF06C0FAE05F9E66
:100E9000300D1124532E13C08AE0389E300D1124DA
:100EA000332E20620CC08E3221F426FD6BC12064EB
:100EB00006C08C3611F4206802C0883641F4F60171
:100EC00093FD859193FF81916F018111C1CF982F7F
:100ED0009F7D9554933028F40C5F1F4FFFE3F983F7
:100EE0000DC0833631F0833771F0833509F05BC074
:100EF00022C0F801808189830E5F1F4F44244394F0
:100F0000512C540115C03801F2E06F0E711CF8012C
:100F1000A080B18026FF03C0652D70E002C06FEF96
:100F20007FEFC5012C870E94D7082C0183012C85F7
:100F30002F77222E17C03801F2E06F0E711CF801D6
:100F4000A080B18026FF03C0652D70E002C06FEF66
:100F50007FEFC5012C870E94CC082C012C852068CE
:100F6000222E830123FC1BC0832D90E048165906D6
:100F7000B0F4B70180E290E00E94E2083A94F4CF26
:100F8000F50127FC859127FE81915F01B70190E073
:100F90000E94E20831103A94F1E04F1A51084114CE
:100FA000510471F7E5C0843611F0893639F5F8013E
:100FB00027FF07C060817181828193810C5F1F4F81
:100FC00008C060817181072E000C880B990B0E5FA1
:100FD0001F4F2F76722E97FF09C0909580957095C0
:100FE00061957F4F8F4F9F4F2068722E2AE030E02F
:100FF000A4010E941A09A82EA81844C0853729F414
:101000002F7EB22E2AE030E025C0F22FF97FBF2ECE
:101010008F36C1F018F4883579F0B4C0803719F0F4
:10102000883721F0AFC02F2F2061B22EB4FE0DC043
:101030008B2D8460B82E09C024FF0AC09F2F9660B4
:10104000B92E06C028E030E005C020E130E002C043
:1010500020E132E0F801B7FE07C060817181828132
:1010600093810C5F1F4F06C06081718180E090E02A
:101070000E5F1F4FA4010E941A09A82EA818FB2D6D
:10108000FF777F2E76FE0BC0372D3E7FA51450F4E0
:1010900074FE0AC072FC08C0372D3E7E05C0BA2C13
:1010A000372D03C0BA2C01C0B52C34FF0DC0FE0192
:1010B000EA0DF11D8081803311F4397E09C032FFC1
:1010C00006C0B394B39404C0832F867809F0B39418
:1010D00033FD13C030FF06C05A2CB31418F4530C60
:1010E0005B18B32CB31468F4B70180E290E03C873E
:1010F0000E94E208B3943C85F5CFB31410F43B187A
:1011000001C0312C34FF12C0B70180E390E03C876E
:101110000E94E2083C8532FF17C031FD03C088E71A
:1011200090E002C088E590E0B7010CC0832F86787C
:1011300059F031FF02C08BE201C080E237FD8DE241
:10114000B70190E00E94E208A51438F4B70180E3EB
:1011500090E00E94E2085A94F7CFAA94F401EA0DB5
:10116000F11D8081B70190E00E94E208A110F5CF47
:10117000332009F451CEB70180E290E00E94E208EA
:101180003A94F6CFF7018681978102C08FEF9FEFE7
:101190002C96E2E10C94E409FC010590615070404A
:1011A0000110D8F7809590958E0F9F1F0895FC0130
:1011B0006150704001900110D8F7809590958E0F86
:1011C0009F1F08950F931F93CF93DF93FB012381FC
:1011D00021FD03C08FEF9FEF28C022FF16C046817C
:1011E0005781248135814217530744F4A081B1818E
:1011F0009D012F5F3F4F318320838C932681378160
:101200002F5F3F4F3783268310C0EB01092F182F24
:101210000084F185E02D0995892BE1F68E819F816F
:1012200001969F838E83812F902FDF91CF911F9105
:101230000F910895FA01AA27283051F1203181F148
:10124000E8946F936E7F6E5F7F4F8F4F9F4FAF4FCE
:10125000B1E03ED0B4E03CD0670F781F891F9A1FE1
:10126000A11D680F791F8A1F911DA11D6A0F711D95
:10127000811D911DA11D20D009F468943F912AE0A1
:10128000269F11243019305D3193DEF6CF01089589
:10129000462F4770405D4193B3E00FD0C9F7F6CFBA
:1012A000462F4F70405D4A3318F0495D31FD405282
:1012B000419302D0A9F7EACFB4E0A6959795879518
:1012C00077956795BA95C9F70097610571050895F7
:1012D0009B01AC010A2E06945795479537952795A3
:1012E000BA95C9F7620F731F841F951FA01D08953B
:1012F000052E97FB1EF400940E948F0957FD07D01E
:101300000E94970907FC03D04EF40C948F09509566
:101310004095309521953F4F4F4F5F4F08959095E1
:101320008095709561957F4F8F4F9F4F0895A1E2F3
:101330001A2EAA1BBB1BFD010DC0AA1FBB1FEE1F4F
:10134000FF1FA217B307E407F50720F0A21BB30B9A
:10135000E40BF50B661F771F881F991F1A9469F716
:1013600060957095809590959B01AC01BD01CF0172
:101370000895A29FB001B39FC001A39F700D811D6E
:101380001124911DB29F700D811D1124911D08958E
:101390002F923F924F925F926F927F928F929F9285
:1013A000AF92BF92CF92DF92EF92FF920F931F9373
:1013B000CF93DF93CDB7DEB7CA1BDB0B0FB6F89424
:1013C000DEBF0FBECDBF09942A88398848885F8464
:1013D0006E847D848C849B84AA84B984C884DF80D5
:1013E000EE80FD800C811B81AA81B981CE0FD11DB9
:1013F0000FB6F894DEBF0FBECDBFED010895F8948F
:02140000FFCF1C
:1014020053544F50433A256400010000000000008D
:10141200009702130260023E025202DE020D0A002F
:10142200686974706F696E74733A200054617267F0
:0E143200657420417474656D7074733A200007
:00000001FF
